:1000000045C0000053C0000051C000004FC00000B8
:100010004DC000004BC0000049C0000047C00000B8
:1000200045C0000043C0000041C000003FC00000C8
:100030003DC000003BC0000039C0000037C00000D8
:1000400035C0000033C0000031C000002FC00000E8
:100050002DC000002BC0000029C0000027C00000F8
:1000600025C0000023C0000021C000001FC0000008
:100070001DC000001BC0000019C0000017C0000018
:1000800015C0000013C0000011C0000011241FBEE5
:10009000CFEFD0E1DEBFCDBF21E0A0E0B1E001C0F5
:1000A0001D92A030B207E1F70ED09AC0A9CF9923D4
:1000B00014F480E090E08536910514F084E690E039
:1000C0009BBD8ABD08958FEF8ABB11BA80E687BBBE
:1000D00082E88FBD8AE18EBD1BBC1ABC19BC18BC5E
:1000E00084E690E097BD86BDC0E0D0E080B381306B
:1000F00061F5C436D10529F48EE38BBBCFE5D0E0A2
:1001000063C0CF35D10529F48CE38BBBCAE5D0E0C1
:100110005BC0CA35D10529F488E38BBBC5E5D0E0C7
:1001200053C0C535D10529F480E38BBBC0E5D0E0D1
:100130004BC0C035D10529F480E28BBBCBE4D0E0C5
:1001400043C01BBAC0E0D0E03FC080B38230B1F5FD
:10015000C436D10521F41BBAC0E0D0E035C02097E9
:1001600029F480E28BBBCBE4D0E02EC0CB34D105A8
:1001700029F480E38BBBC0E5D0E026C0C035D105B3
:1001800029F488E38BBBC5E5D0E01EC0C535D10599
:1001900029F48CE38BBBCAE5D0E016C0CA35D10583
:1001A00029F48EE38BBBCFE5D0E00EC0CF35D1056F
:1001B00059F48FE38BBBC4E6D0E006C080B3843033
:1001C00019F41BBAC0E0D0E0CE0171DF2FEF89E651
:1001D00098E1215080409040E1F700C0000086CFB8
:0401E000F894FFCFC1
:00000001FF
