S019000073656E745F746F5F50435F4C45445F4F4E2E73726563ED
S113000045C000004BC0000049C0000047C00000CC
S113001045C0000043C0000041C000003FC00000D4
S11300203DC000003BC0000039C0000037C00000E4
S113003035C0000033C0000031C000002FC00000F4
S11300402DC000002BC0000039C0000027C00000F4
S113005025C0000023C0000021C000001FC0000014
S11300601DC000001BC0000019C0000017C0000024
S113007015C0000013C0000011C000000FC0000034
S11300800DC000000BC0000009C0000011241FBEF9
S1130090CFEFD0E1DEBFCDBF08D084C2B1CF909303
S11300A0900089B988E98AB9089587E690E0F7DF76
S11300B07894FFCF5F9BFECF8CB108951F920F926F
S11300C00FB60F9211240BB60F922F933F934F93B9
S11300D05F936F937F938F939F93AF93BF93EF93AC
S11300E0FF938FEF8ABB12B8E5DF883309F06CC049
S11300F02FEF85EA9EE0215080409040E1F700C058
S113010000008FEF8BBB2FEF85EA9EE021508040EB
S11301109040E1F700C000008EEF8BBB2FEF85EA23
S11301209EE0215080409040E1F700C000008CEF39
S11301308BBB2FEF85EA9EE0215080409040E1F791
S113014000C0000088EF8BBB2FEF85EA9EE02150B2
S113015080409040E1F700C0000080EF8BBB2FEFA0
S113016085EA9EE0215080409040E1F700C0000005
S113017080EE8BBB2FEF85EA9EE0215080409040BB
S1130180E1F700C0000080EC8BBB2FEF85EA9EE016
S1130190215080409040E1F700C0000080E88BBB14
S11301A02FEF85EA9EE0215080409040E1F700C0A7
S11301B000001BBA2FEF85EA9EE02150804090405A
S11301C0E1F700C00000DBC1873309F062C02FEF04
S11301D085EA9EE0215080409040E1F700C0000095
S11301E08FEF8BBB2FEF85EA9EE02150804090403B
S11301F0E1F700C000008EEF8BBB2FEF85EA9EE095
S1130200215080409040E1F700C000008CEF8BBB90
S11302102FEF85EA9EE0215080409040E1F700C036
S1130220000088EF8BBB2FEF85EA9EE021508040D1
S11302309040E1F700C0000080EF8BBB2FEF85EA10
S11302409EE0215080409040E1F700C0000080EE25
S11302508BBB2FEF85EA9EE0215080409040E1F770
S113026000C0000080EC8BBB2FEF85EA9EE021509C
S113027080409040E1F700C0000080E88BBB2FEF86
S113028085EA9EE0215080409040E1F700C00000E4
S113029076C1863309F057C02FEF85EA9EE02150DE
S11302A080409040E1F700C000008FEF8BBB2FEF40
S11302B085EA9EE0215080409040E1F700C00000B4
S11302C08EEF8BBB2FEF85EA9EE02150804090405B
S11302D0E1F700C000008CEF8BBB2FEF85EA9EE0B6
S11302E0215080409040E1F700C0000088EF8BBBB4
S11302F02FEF85EA9EE0215080409040E1F700C056
S1130300000080EF8BBB2FEF85EA9EE021508040F8
S11303109040E1F700C0000080EE8BBB2FEF85EA30
S11303209EE0215080409040E1F700C0000080EC46
S11303308BBB2FEF85EA9EE0215080409040E1F78F
S113034000C000001CC1853309F04CC02FEF85EAC2
S11303509EE0215080409040E1F700C000008FEF04
S11303608BBB2FEF85EA9EE0215080409040E1F75F
S113037000C000008EEF8BBB2FEF85EA9EE021507A
S113038080409040E1F700C000008CEF8BBB2FEF62
S113039085EA9EE0215080409040E1F700C00000D3
S11303A088EF8BBB2FEF85EA9EE021508040904080
S11303B0E1F700C0000080EF8BBB2FEF85EA9EE0E1
S11303C0215080409040E1F700C0000080EE8BBBDC
S11303D02FEF85EA9EE0215080409040E1F700C075
S11303E00000CDC0843309F041C02FEF85EA9EE0C0
S11303F0215080409040E1F700C000008FEF8BBB9C
S11304002FEF85EA9EE0215080409040E1F700C044
S113041000008EEF8BBB2FEF85EA9EE021508040D9
S11304209040E1F700C000008CEF8BBB2FEF85EA12
S11304309EE0215080409040E1F700C0000088EF2A
S11304408BBB2FEF85EA9EE0215080409040E1F77E
S113045000C0000080EF8BBB2FEF85EA9EE02150A7
S113046080409040E1F700C0000089C08333B1F5BB
S11304702FEF85EA9EE0215080409040E1F700C0D4
S113048000008FEF8BBB2FEF85EA9EE02150804068
S11304909040E1F700C000008EEF8BBB2FEF85EAA0
S11304A09EE0215080409040E1F700C000008CEFB6
S11304B08BBB2FEF85EA9EE0215080409040E1F70E
S11304C000C0000088EF8BBB2FEF85EA9EE021502F
S11304D080409040E1F700C0000051C0823359F5DC
S11304E02FEF85EA9EE0215080409040E1F700C064
S11304F000008FEF8BBB2FEF85EA9EE021508040F8
S11305009040E1F700C000008EEF8BBB2FEF85EA2F
S11305109EE0215080409040E1F700C000008CEF45
S11305208BBB2FEF85EA9EE0215080409040E1F79D
S113053000C0000024C0813301F52FEF85EA9EE05E
S1130540215080409040E1F700C000008FEF8BBB4A
S11305502FEF85EA9EE0215080409040E1F700C0F3
S113056000008EEF8BBB2FEF85EA9EE02150804088
S11305709040E1F700C0000002C08FEF8BBBFF91F9
S1130580EF91BF91AF919F918F917F916F915F9107
S11305904F913F912F910F900BBE0F900FBE0F9074
S10B05A01F901895F894FFCF99
S9030000FC
