S00B00006164632E73726563F1
S113000045C000004BC0000049C0000047C00000CC
S113001045C0000043C0000041C000003FC00000D4
S11300203DC000003BC0000039C0000037C00000E4
S113003035C0000033C0000031C000002FC00000F4
S11300402DC000002BC0000029C0000027C0000004
S113005025C0000023C0000021C000001FC0000014
S11300601DC000001BC0000019C0000017C0000024
S113007015C0000013C0000011C000000FC0000034
S11300800DC000000BC0000009C0000011241FBEF9
S1130090CFEFD0E1DEBFCDBF4CD053C0B1CF80E4B1
S11300A087B987E886B9089586B1806486B9349B98
S11300B0FECF24B185B190E0982F8827822B089534
S11300C0833C21E0920718F48FEF8BBB0895863EA2
S11300D021E0920718F48FE78BBB0895893022E062
S11300E0920718F48FE38BBB08958C3222E09207B9
S11300F018F48FE18BBB08958F3422E0920718F433
S11301008FE08BBB0895823722E0920718F487E0D2
S11301108BBB08958B3822E0920718F483E08BBBE5
S113012008958E3A924018F481E08BBB08951BBA6F
S113013008958FEF8ABB10926100B1DFB5DFC0DF95
S1090140FDCFF894FFCF8F
S9030000FC
