:1000000045C000004BC0000049C0000047C00000D0
:1000100045C0000043C0000041C000003FC00000D8
:100020003DC000003BC0000039C0000037C00000E8
:1000300035C0000033C0000031C000002FC00000F8
:100040002DC000002BC0000029C0000027C0000008
:1000500025C0000023C0000021C000001FC0000018
:100060001DC000001BC0000019C0000017C0000028
:1000700015C0000013C0000011C000000FC0000038
:100080000DC000000BC0000009C0000011241FBEFD
:10009000CFEFD0E1DEBFCDBF21D0F2C0B1CF909382
:1000A000900089B988E18AB908955D9BFECF8CB92B
:1000B00008950F931F93CF93DF938C01C0E0D0E09E
:1000C00002C0F3DF2196F801EC0FFD1F8081811142
:1000D000F8CFDF91CF911F910F910895CF93DF93C8
:1000E00000D000D01F92CDB7DEB787E690E0D7DF13
:1000F00082B18F77806482B98FEF81BB83E08EBD40
:1001000083B18F7B83B925E32A95F1F7000083B192
:10011000806483B985E38A95F1F7000083B18F7B12
:1001200083B90F9BFECF1DBC1CBC0F99FECF1EBC1C
:100130002CB53DB5220F331F220F331F369527955F
:10014000A4E5B1E05BD028EE33E040E050E034D0ED
:10015000DA01C9012E31310518F42EEF22BB1AC085
:100160002634310518F42DEF22BB14C02436310596
:1001700018F42BEF22BB0EC02238310518F427EFFC
:1001800022BB08C0283C310518F42FEE22BB02C068
:100190002FED22BB4AE0BE016F5F7F4F3ED0CE0104
:1001A000019687DF9FEF23ED80E391502040804050
:1001B000E1F700C00000A2CFA1E21A2EAA1BBB1BD0
:1001C000FD010DC0AA1FBB1FEE1FFF1FA217B30723
:1001D000E407F50720F0A21BB30BE40BF50B661F39
:1001E000771F881F991F1A9469F7609570958095FD
:1001F00090959B01AC01BD01CF010895A29FB00174
:10020000B39FC001A39F700D811D1124911DB29F4A
:10021000700D811D1124911D0895BB274A3031F4C2
:10022000992322F4BDE2909581959F4F01C0BB2791
:10023000FB015527AA27880F991FAA1FA41710F0A2
:10024000A41B83955051B9F7A05DAA3308F0A95DAE
:10025000A193009779F7B111B1931192CB0100C02E
:10026000DC01FC01672F71917723E1F7329704C01D
:100270007C916D9370836291AE17BF07C8F30895A8
:04028000F894FFCF20
:00000001FF
