S01E00004D6F6F6E27732044435F4D4F544F525F53455249414C2E737265631D
S113000045C0000053C0000051C000004FC00000B4
S11300104DC000004BC0000049C0000047C00000B4
S113002045C0000043C0000041C000003FC00000C4
S11300303DC000003BC0000039C0000037C00000D4
S113004035C0000033C0000031C000002FC00000E4
S11300502DC000002BC0000029C0000027C00000F4
S113006025C0000023C0000021C000001FC0000004
S11300701DC000001BC0000019C0000017C0000014
S113008015C0000013C0000011C0000011241FBEE1
S1130090CFEFD0E1DEBFCDBF21E0A0E0B1E001C0F1
S11300A01D92A030B207E1F71CD0B1C0A9CF9923AB
S11300B014F480E090E08536910514F084E690E035
S11300C09BBD8ABD08959093900089B988E18AB94F
S11300D008955D9BFECF8CB908955F9BFECF8CB1D4
S11300E008958FEF8ABB11BA80E687BB82E88FBD83
S11300F08AE18EBD1BBC1ABC19BC18BC84E690E016
S113010097BD86BD789487E690E0DDDFE6DFC82FF3
S113011090E08033910571F480E090E0C8DF1BBA71
S11301202FEF81EE94E0215080409040E1F700C031
S113013000006AC08133910579F484E690E0B7DF6A
S113014081E08BBB2FEF81EE94E021508040904002
S1130150E1F700C0000058C08233910579F480E5CE
S113016090E0A5DF80E28BBB2FEF81EE94E021507D
S113017080409040E1F700C0000046C08433910500
S113018079F485E590E093DF80E18BBB2FEF81EE7E
S113019094E0215080409040E1F700C0000034C05A
S11301A08633910579F48AE590E081DF88E08BBBA2
S11301B02FEF81EE94E0215080409040E1F700C0A1
S11301C0000022C08833910579F48FE590E06FDF59
S11301D084E08BBB2FEF81EE94E02150804090406F
S11301E0E1F700C0000010C0C99771F48FE590E0FA
S11301F05EDF82E08BBB2FEF81EE94E021508040E4
S11302009040E1F700C000008C2F63DF7FCFF894AB
S1050210FFCF1A
S9030000FC
