:1000000045C0000053C0000051C000004FC00000B8
:100010004DC000004BC0000049C0000047C00000B8
:1000200045C0000043C0000041C000003FC00000C8
:100030003DC000003BC0000039C0000037C00000D8
:1000400035C0000033C0000031C000002FC00000E8
:100050002DC000002BC0000029C0000027C00000F8
:1000600025C0000023C0000021C000001FC0000008
:100070001DC000001BC0000019C0000017C0000018
:1000800015C0000013C0000011C0000011241FBEE5
:10009000CFEFD0E1DEBFCDBF21E0A0E0B1E001C0F5
:1000A0001D92A030B207E1F70ED041C0A9CF99232D
:1000B00014F480E090E08536910514F084E690E039
:1000C0009BBD8ABD08958FEF8ABB11BA80E687BBBE
:1000D00082E88FBD8AE18EBD1BBC1ABC19BC18BC5E
:1000E00084E690E097BD86BD80B3813029F48FEF20
:1000F0008BBBC4E6D0E018C080B3823049F48FE0F7
:100100008BBBC436D10559F0209761F02A960CC0FC
:1001100080B3843049F41BBAC0E0D0E005C0C0E031
:10012000D0E002C0C6E4D0E0CE01C1DFDDCFF8945C
:02013000FFCFFF
:00000001FF
